{
  "_format": "hh-sol-artifact-1",
  "contractName": "WavePortal",
  "sourceName": "contracts/WavePortal.sol",
  "abi": [
    {
      "inputs": [],
      "stateMutability": "payable",
      "type": "constructor"
    },
    {
      "anonymous": false,
      "inputs": [
        {
          "indexed": true,
          "internalType": "address",
          "name": "from",
          "type": "address"
        },
        {
          "indexed": false,
          "internalType": "uint256",
          "name": "timestamp",
          "type": "uint256"
        },
        {
          "indexed": false,
          "internalType": "string",
          "name": "message",
          "type": "string"
        }
      ],
      "name": "NewWave",
      "type": "event"
    },
    {
      "inputs": [],
      "name": "getAllWaves",
      "outputs": [
        {
          "components": [
            {
              "internalType": "address",
              "name": "waver",
              "type": "address"
            },
            {
              "internalType": "string",
              "name": "message",
              "type": "string"
            },
            {
              "internalType": "uint256",
              "name": "timestamp",
              "type": "uint256"
            }
          ],
          "internalType": "struct WavePortal.Wave[]",
          "name": "",
          "type": "tuple[]"
        }
      ],
      "stateMutability": "view",
      "type": "function"
    },
    {
      "inputs": [],
      "name": "getTotalWaves",
      "outputs": [
        {
          "internalType": "uint256",
          "name": "",
          "type": "uint256"
        }
      ],
      "stateMutability": "view",
      "type": "function"
    },
    {
      "inputs": [
        {
          "internalType": "address",
          "name": "",
          "type": "address"
        }
      ],
      "name": "lastWaveAt",
      "outputs": [
        {
          "internalType": "uint256",
          "name": "",
          "type": "uint256"
        }
      ],
      "stateMutability": "view",
      "type": "function"
    },
    {
      "inputs": [
        {
          "internalType": "string",
          "name": "_message",
          "type": "string"
        }
      ],
      "name": "wave",
      "outputs": [],
      "stateMutability": "nonpayable",
      "type": "function"
    }
  ],
  "bytecode": "0x60806040526200004f6040518060400160405280601481526020017f5761766520506f7274616c20436f6e74726163740000000000000000000000008152506200007760201b620006611760201c565b606444426200005f91906200017c565b6200006b9190620001e6565b600181905550620002dc565b62000117816040516024016200008e9190620002b8565b6040516020818303038152906040527f41304fac000000000000000000000000000000000000000000000000000000007bffffffffffffffffffffffffffffffffffffffffffffffffffffffff19166020820180517bffffffffffffffffffffffffffffffffffffffffffffffffffffffff83818316178352505050506200011a60201b60201c565b50565b60008151905060006a636f6e736f6c652e6c6f679050602083016000808483855afa5050505050565b6000819050919050565b7f4e487b7100000000000000000000000000000000000000000000000000000000600052601160045260246000fd5b6000620001898262000143565b9150620001968362000143565b9250828201905080821115620001b157620001b06200014d565b5b92915050565b7f4e487b7100000000000000000000000000000000000000000000000000000000600052601260045260246000fd5b6000620001f38262000143565b9150620002008362000143565b925082620002135762000212620001b7565b5b828206905092915050565b600081519050919050565b600082825260208201905092915050565b60005b838110156200025a5780820151818401526020810190506200023d565b60008484015250505050565b6000601f19601f8301169050919050565b600062000284826200021e565b62000290818562000229565b9350620002a28185602086016200023a565b620002ad8162000266565b840191505092915050565b60006020820190508181036000830152620002d4818462000277565b905092915050565b61132c80620002ec6000396000f3fe608060405234801561001057600080fd5b506004361061004c5760003560e01c8063449d46c0146100515780639a2cdc081461006d578063bd43a9081461008b578063cb199503146100a9575b600080fd5b61006b60048036038101906100669190610a54565b6100d9565b005b6100756104ad565b6040516100829190610ab6565b60405180910390f35b6100936104f8565b6040516100a09190610cb2565b60405180910390f35b6100c360048036038101906100be9190610d00565b610649565b6040516100d09190610ab6565b60405180910390f35b42610384600360003373ffffffffffffffffffffffffffffffffffffffff1673ffffffffffffffffffffffffffffffffffffffff168152602001908152602001600020546101279190610d5c565b10610167576040517f08c379a000000000000000000000000000000000000000000000000000000000815260040161015e90610ded565b60405180910390fd5b42600360003373ffffffffffffffffffffffffffffffffffffffff1673ffffffffffffffffffffffffffffffffffffffff1681526020019081526020016000208190555060016000808282546101bd9190610d5c565b925050819055506102046040518060400160405280601681526020017f257320776176656420772f206d6573736167652025730000000000000000000081525033836106fa565b600260405180606001604052803373ffffffffffffffffffffffffffffffffffffffff16815260200183815260200142815250908060018154018082558091505060019003906000526020600020906003020160009091909190915060008201518160000160006101000a81548173ffffffffffffffffffffffffffffffffffffffff021916908373ffffffffffffffffffffffffffffffffffffffff16021790555060208201518160010190816102bc9190611019565b50604082015181600201555050606460015442446102da9190610d5c565b6102e49190610d5c565b6102ee919061111a565b6001819055506103356040518060400160405280601681526020017f52616e646f6d20232067656e6572617465643a20256400000000000000000000815250600154610799565b60326001541161041a5761037e6040518060400160405280600781526020017f257320776f6e210000000000000000000000000000000000000000000000000081525033610835565b600066038d7ea4c680009050478111156103cd576040517f08c379a00000000000000000000000000000000000000000000000000000000081526004016103c490611197565b60405180910390fd5b3373ffffffffffffffffffffffffffffffffffffffff166108fc829081150290604051600060405180830381858888f19350505050158015610413573d6000803e3d6000fd5b505061045a565b6104596040518060400160405280601081526020017f257320646964206e6f742077696e3a200000000000000000000000000000000081525033610835565b5b3373ffffffffffffffffffffffffffffffffffffffff167f5f7e16dc676677766a70e9c5628aa6c54ddb8b6e5188e2ae1e1f17f1ffbea71642836040516104a29291906111f0565b60405180910390a250565b60006104f06040518060400160405280601681526020017f5765206861766520256420746f74616c20776176657300000000000000000000815250600054610799565b600054905090565b60606002805480602002602001604051908101604052809291908181526020016000905b8282101561064057838290600052602060002090600302016040518060600160405290816000820160009054906101000a900473ffffffffffffffffffffffffffffffffffffffff1673ffffffffffffffffffffffffffffffffffffffff1673ffffffffffffffffffffffffffffffffffffffff1681526020016001820180546105a590610e3c565b80601f01602080910402602001604051908101604052809291908181526020018280546105d190610e3c565b801561061e5780601f106105f35761010080835404028352916020019161061e565b820191906000526020600020905b81548152906001019060200180831161060157829003601f168201915b505050505081526020016002820154815250508152602001906001019061051c565b50505050905090565b60036020528060005260406000206000915090505481565b6106f7816040516024016106759190611220565b6040516020818303038152906040527f41304fac000000000000000000000000000000000000000000000000000000007bffffffffffffffffffffffffffffffffffffffffffffffffffffffff19166020820180517bffffffffffffffffffffffffffffffffffffffffffffffffffffffff83818316178352505050506108d1565b50565b61079483838360405160240161071293929190611251565b6040516020818303038152906040527fe0e9ad4f000000000000000000000000000000000000000000000000000000007bffffffffffffffffffffffffffffffffffffffffffffffffffffffff19166020820180517bffffffffffffffffffffffffffffffffffffffffffffffffffffffff83818316178352505050506108d1565b505050565b61083182826040516024016107af929190611296565b6040516020818303038152906040527fb60e72cc000000000000000000000000000000000000000000000000000000007bffffffffffffffffffffffffffffffffffffffffffffffffffffffff19166020820180517bffffffffffffffffffffffffffffffffffffffffffffffffffffffff83818316178352505050506108d1565b5050565b6108cd828260405160240161084b9291906112c6565b6040516020818303038152906040527f319af333000000000000000000000000000000000000000000000000000000007bffffffffffffffffffffffffffffffffffffffffffffffffffffffff19166020820180517bffffffffffffffffffffffffffffffffffffffffffffffffffffffff83818316178352505050506108d1565b5050565b60008151905060006a636f6e736f6c652e6c6f679050602083016000808483855afa5050505050565b6000604051905090565b600080fd5b600080fd5b600080fd5b600080fd5b6000601f19601f8301169050919050565b7f4e487b7100000000000000000000000000000000000000000000000000000000600052604160045260246000fd5b61096182610918565b810181811067ffffffffffffffff821117156109805761097f610929565b5b80604052505050565b60006109936108fa565b905061099f8282610958565b919050565b600067ffffffffffffffff8211156109bf576109be610929565b5b6109c882610918565b9050602081019050919050565b82818337600083830152505050565b60006109f76109f2846109a4565b610989565b905082815260208101848484011115610a1357610a12610913565b5b610a1e8482856109d5565b509392505050565b600082601f830112610a3b57610a3a61090e565b5b8135610a4b8482602086016109e4565b91505092915050565b600060208284031215610a6a57610a69610904565b5b600082013567ffffffffffffffff811115610a8857610a87610909565b5b610a9484828501610a26565b91505092915050565b6000819050919050565b610ab081610a9d565b82525050565b6000602082019050610acb6000830184610aa7565b92915050565b600081519050919050565b600082825260208201905092915050565b6000819050602082019050919050565b600073ffffffffffffffffffffffffffffffffffffffff82169050919050565b6000610b2882610afd565b9050919050565b610b3881610b1d565b82525050565b600081519050919050565b600082825260208201905092915050565b60005b83811015610b78578082015181840152602081019050610b5d565b60008484015250505050565b6000610b8f82610b3e565b610b998185610b49565b9350610ba9818560208601610b5a565b610bb281610918565b840191505092915050565b610bc681610a9d565b82525050565b6000606083016000830151610be46000860182610b2f565b5060208301518482036020860152610bfc8282610b84565b9150506040830151610c116040860182610bbd565b508091505092915050565b6000610c288383610bcc565b905092915050565b6000602082019050919050565b6000610c4882610ad1565b610c528185610adc565b935083602082028501610c6485610aed565b8060005b85811015610ca05784840389528151610c818582610c1c565b9450610c8c83610c30565b925060208a01995050600181019050610c68565b50829750879550505050505092915050565b60006020820190508181036000830152610ccc8184610c3d565b905092915050565b610cdd81610b1d565b8114610ce857600080fd5b50565b600081359050610cfa81610cd4565b92915050565b600060208284031215610d1657610d15610904565b5b6000610d2484828501610ceb565b91505092915050565b7f4e487b7100000000000000000000000000000000000000000000000000000000600052601160045260246000fd5b6000610d6782610a9d565b9150610d7283610a9d565b9250828201905080821115610d8a57610d89610d2d565b5b92915050565b600082825260208201905092915050565b7f746865206761702073686f756c64206265206f7665722031356d000000000000600082015250565b6000610dd7601a83610d90565b9150610de282610da1565b602082019050919050565b60006020820190508181036000830152610e0681610dca565b9050919050565b7f4e487b7100000000000000000000000000000000000000000000000000000000600052602260045260246000fd5b60006002820490506001821680610e5457607f821691505b602082108103610e6757610e66610e0d565b5b50919050565b60008190508160005260206000209050919050565b60006020601f8301049050919050565b600082821b905092915050565b600060088302610ecf7fffffffffffffffffffffffffffffffffffffffffffffffffffffffffffffffff82610e92565b610ed98683610e92565b95508019841693508086168417925050509392505050565b6000819050919050565b6000610f16610f11610f0c84610a9d565b610ef1565b610a9d565b9050919050565b6000819050919050565b610f3083610efb565b610f44610f3c82610f1d565b848454610e9f565b825550505050565b600090565b610f59610f4c565b610f64818484610f27565b505050565b5b81811015610f8857610f7d600082610f51565b600181019050610f6a565b5050565b601f821115610fcd57610f9e81610e6d565b610fa784610e82565b81016020851015610fb6578190505b610fca610fc285610e82565b830182610f69565b50505b505050565b600082821c905092915050565b6000610ff060001984600802610fd2565b1980831691505092915050565b60006110098383610fdf565b9150826002028217905092915050565b61102282610b3e565b67ffffffffffffffff81111561103b5761103a610929565b5b6110458254610e3c565b611050828285610f8c565b600060209050601f8311600181146110835760008415611071578287015190505b61107b8582610ffd565b8655506110e3565b601f19841661109186610e6d565b60005b828110156110b957848901518255600182019150602085019450602081019050611094565b868310156110d657848901516110d2601f891682610fdf565b8355505b6001600288020188555050505b505050505050565b7f4e487b7100000000000000000000000000000000000000000000000000000000600052601260045260246000fd5b600061112582610a9d565b915061113083610a9d565b9250826111405761113f6110eb565b5b828206905092915050565b7f4e6f7420656e6f7567682062616c616e63650000000000000000000000000000600082015250565b6000611181601283610d90565b915061118c8261114b565b602082019050919050565b600060208201905081810360008301526111b081611174565b9050919050565b60006111c282610b3e565b6111cc8185610d90565b93506111dc818560208601610b5a565b6111e581610918565b840191505092915050565b60006040820190506112056000830185610aa7565b818103602083015261121781846111b7565b90509392505050565b6000602082019050818103600083015261123a81846111b7565b905092915050565b61124b81610b1d565b82525050565b6000606082019050818103600083015261126b81866111b7565b905061127a6020830185611242565b818103604083015261128c81846111b7565b9050949350505050565b600060408201905081810360008301526112b081856111b7565b90506112bf6020830184610aa7565b9392505050565b600060408201905081810360008301526112e081856111b7565b90506112ef6020830184611242565b939250505056fea26469706673582212202b428508e85ec1a50a7f097434204ced2995711a0294ce7c1f0e421ed9772d5d64736f6c63430008110033",
  "linkReferences": {},
  "deployedLinkReferences": {}
}